:100000003AC0000048C0000046C0000044C00000E4
:1000100042C0000040C000003EC000003CC00000E4
:100020003AC0000038C0000036C0000034C00000F4
:1000300032C0000039C200002EC000002CC00000F9
:100040002AC0000028C000000AC2000024C000002E
:1000500022C0000020C000001EC000001CC0000024
:100060001AC0000018C000004A01AD010601880155
:100070001F012E01980111241FBECFEFD8E0DEBF73
:10008000CDBF21E0A0E0B1E001C01D92A431B207D4
:10009000E1F71BD248C2B4CFE2E1F1E08081836690
:1000A0008F778083E3E1F1E080818E7F808388EB2E
:1000B0009BE090930501809304018BE08093010104
:1000C00080E49CE990930301809302018CE9809382
:1000D00087008091020180938600809105018093C2
:1000E0008900809104018093880010928B008AE03F
:1000F00080938A0008958091120180FF22C0409170
:1001000001018091020190910301489F9001499F54
:10011000300D1124220F232F221F330B3195ABE614
:10012000B3E0F2D1A0E0B0E0809306019093070124
:10013000A0930801B0930901E2E1F1E080818E7F94
:1001400080838091120181FF23C080E080930D01A4
:1001500088BD80911201829586958770837090E0AA
:100160008230910559F08330910559F0019719F0CB
:1001700082E085BD08C083E085BD05C084E085BD03
:1001800002C085E085BDE2E1F1E080818D7F808362
:10019000089590910A019F7021F190910A0194FFB6
:1001A00010C04091060150910701849F9001859FE6
:1001B000300D11248091040190910501820F931F4D
:1001C00008954091060150910701849F9001859FF9
:1001D000300D11248091040190910501821B930B35
:1001E00008958091040190910501089580930A017A
:1001F00080910A0182958695877090E087309105FD
:1002000008F0E4C0FC01EC5CFF4F78C180910A016A
:100210008F7021F484B5806384BDD8C080910A01B9
:1002200080E08093000188BD80910A0184FF02C0B4
:10023000289A01C0289884B5806384BDC7C0809186
:100240000A018F70A6DF80930B0190930C019093AD
:10025000890080910B0180938800B8C080910A01C9
:100260008F7131F4EEE0F1E080818E7F80830CC0ED
:10027000EEE0F1E080818160808390910A019F71BE
:10028000990F817C892B8083E2E1F1E08081806895
:1002900080839CC080910A018F7081F480910A0153
:1002A00084FF06C0EFE0F1E080818E7F80832AC06A
:1002B000EFE0F1E080818D7F808324C080910A018E
:1002C00084FF0CC090910A019F70EFE0F1E0990F5C
:1002D000990F8081837C892B808314C080910A01CF
:1002E000982F9F70EFE0F1E08295880F880F807C57
:1002F00020812F73822B80839695969581818C7FA8
:10030000892B8183E2E1F1E08081806880835EC097
:1003100090910A0192959170E1E1F1E0808190FB6A
:1003200080F98083E2E1F1E08081806880834EC0C3
:1003300020910A01E2E1F1E0220F220F2076908164
:100340009F79922B908380910A018770880F880F84
:10035000937E892B8260808339C080910A018C70E2
:1003600081F180910A018C708430B9F480910A0186
:1003700084FF0AC080910401909105010396909337
:1003800005018093040109C0809104019091050149
:100390000397909305018093040180910A018C706A
:1003A000883079F480910A0184FF06C080910101B0
:1003B0008F5F8093010105C080910101815080937E
:1003C0000101E3E1F1E080818160808380E00895B4
:1003D00080911201882324F58091110180FF02C0D1
:1003E0005C9A01C05C9880910E0180FF0FC0482F7D
:1003F00046954F7122EE34E0429FC001439F900D1D
:10040000112490938B0080938A0005C010928B007A
:1004100083E080938A00E2E1F1E080818F7780833E
:10042000089582E8809380008AE180938100109291
:10043000820010926F0016BA8BE08093890088EBDF
:100440008093880010928B008AE080938A00089540
:1004500083EF84BD8AE085BD10926E0008951F92DF
:100460000F920FB60F9211242F933F934F935F93E8
:100470006F937F938F939F93AF93BF93EF93FF936C
:100480008091C600B3DEFF91EF91BF91AF919F9134
:100490008F917F916F915F914F913F912F910F902D
:1004A0000FBE0F901F9018951F920F920FB60F92CC
:1004B00011240F900FBE0F901F90189515B88FE361
:1004C00084B91BB880E18AB90895F8DFAADFC0DFDC
:1004D000E3DD87E690E004D078940DDE79DFFDCF90
:1004E0009093C5008093C40080E28093C00088E9A7
:1004F0008093C10086E08093C2000895EE0FFF1F35
:100500000590F491E02D0994A29FB001B39FC00122
:10051000A39F700D811D1124911DB29F700D811D2F
:0A0520001124911D0895F894FFCFF7
:00000001FF
