:100000003AC0000048C0000046C0000044C00000E4
:1000100042C0000040C000003EC000003CC00000E4
:100020003AC0000038C0000036C0000034C00000F4
:1000300032C0000086C200002EC000002CC00000AC
:100040002AC0000028C0000057C2000024C00000E1
:1000500022C0000020C000001EC000001CC0000024
:100060001AC0000018C000002D02860108029F017E
:10007000AE011802330211241FBECFEFD8E0DEBF5D
:10008000CDBF21E0A0E0B1E001C01D92AF31B207C9
:10009000E1F768D270C4B4CFE5E1F1E08081836616
:1000A0008F778083E6E1F1E080818E7F8D7F808392
:1000B0008FE692E1A3E8BAE38093050190930601ED
:1000C000A0930701B09308018FE692E1A3E0BBE3A0
:1000D00080931B0190931C01A0931D01B0931E01FE
:1000E00008958F929F92AF92BF92CF92DF92EF923C
:1000F000FF928091150180FF5AC080E49CE99093A3
:100100000201809301018CE98093870080910101B5
:1001100080938600609101017091020180E090E07F
:1001200033D34B015C0120910501309106014091D0
:10013000070150910801B6D32AE037ED43EA5CE3AA
:100140008FD2F6D26B017C0170930B0160930A0190
:1001500020911B0130911C0140911D0150911E0105
:10016000C501B4019FD32AE037ED43EA5CE378D2BE
:10017000DFD270930401609303016C197D097695B9
:100180006795729562956F7067277F70672780E02B
:1001900090E0FAD2609317017093180180931901CF
:1001A00090931A01E5E1F1E080818E7F8083809158
:1001B000150181FF23C080E080930E0188BD8091EE
:1001C0001501829586958770837090E08230910545
:1001D00059F08330910559F0019719F082E085BDFF
:1001E00008C083E085BD05C084E085BD02C085E010
:1001F00085BDE5E1F1E080818D7F808380911601EE
:1002000080FF1FC08091090160E070E0CB01BED289
:100210002FE632E143E05AE345D39B01AC0166EAA5
:100220007BE984EC9AE3B7D16093050170930601F2
:100230008093070190930801E6E1F1E080818E7FD1
:1002400080838091160181FF1DC08091090160E0CB
:1002500070E0CB019BD22FE632E143E05AE322D398
:1002600026EA3BE944EC5AE397D160931B01709373
:100270001C0180931D0190931E01E6E1F1E0808155
:100280008D7F8083FF90EF90DF90CF90BF90AF90F5
:100290009F908F900895CF92DF92EF92FF92CF932D
:1002A000C82F20910A0130910B01B90180E090E044
:1002B0006BD26B017C016C2F70E080E090E066D225
:1002C00020911701309118014091190150911A01A4
:1002D000E9D29B01AC01C701B6015ED129D2CB01A5
:1002E000CF91FF90EF90DF90CF9008958093090118
:1002F000E0910901E295E695E770F0E03197E7308B
:10030000F10508F047C0EC5CFF4F2FC38091090155
:100310008F7021F484B5806384BDAAC080910901E7
:1003200080E08093000188BD8091090184FF02C0B4
:10033000289A01C0289884B5806384BD99C08091B3
:1003400009018F71A8DF80930C0190930D019093A8
:10035000890080910C01809388008AC080910901F6
:100360008F7131F4EFE0F1E080818E7F80830CC0EB
:10037000EFE0F1E0808181608083909109019F71BD
:10038000990F817C892B8083E5E1F1E08081806891
:1003900080836EC0809109018F7081F48091090182
:1003A00084FF06C0E0E1F1E080818E7F80832AC077
:1003B000E0E1F1E080818D7F808324C0809109019C
:1003C00084FF0CC0909109019F70E0E1F1E0990F6A
:1003D000990F8081837C892B808314C080910901CF
:1003E000982F9F70E0E1F1E08295880F880F807C64
:1003F00020812F73822B80839695969581818C7FA7
:10040000892B8183E5E1F1E080818068808330C0C1
:100410009091090192959170E2E1F1E0808190FB69
:1004200080F98083E5E1F1E080818068808320C0ED
:1004300020910901E5E1F1E0220F220F2076908161
:100440009F79922B9083809109018770880F880F84
:10045000937E892B826080830BC0E6E1F1E080818E
:100460008260808305C0E6E1F1E080818160808365
:1004700080E0089580911501882324F58091120170
:1004800080FF02C05C9A01C05C9880910F0180FFE0
:100490000FC08695880F880F880F109213018093E4
:1004A000140180938B008091130180938A0005C012
:1004B00010928B0083E080938A00E5E1F1E0808177
:1004C0008F778083089582E8809380008AE180930B
:1004D00081001092820010926F0016BA8BE0809318
:1004E000890088EB80938800089583EF84BD8AE0BB
:1004F00085BD10926E0008951F920F920FB60F9255
:1005000011242F933F934F935F936F937F938F9318
:100510009F93AF93BF93EF93FF938091C600E6DE66
:10052000FF91EF91BF91AF919F918F917F916F91CB
:100530005F914F913F912F910F900FBE0F901F90A1
:1005400018951F920F920FB60F9211240F900FBEA5
:100550000F901F90189515B88FE384B91BB880E1F0
:100560008AB90895F8DFAFDFC0DF96DD87E690E057
:1005700004D07894B6DD7EDFFDCF9093C5008093E4
:10058000C40080E28093C00088E98093C10086E0C7
:100590008093C20008955058BB27AA270ED048C1A7
:1005A00039D130F03ED120F031F49F3F11F41EF4E8
:1005B0002EC10EF4E095E7FB24C1E92F4AD180F368
:1005C000BA17620773078407950718F071F49EF550
:1005D00062C10EF4E0950B2EBA2FA02D0B01B901CC
:1005E00090010C01CA01A0011124FF27591B99F0A9
:1005F000593F50F4503E68F11A16F040A22F232FB5
:10060000342F4427585FF3CF469537952795A79504
:10061000F0405395C9F77EF41F16BA0B620B730BAB
:10062000840BBAF09150A1F0FF0FBB1F661F771F1C
:10063000881FC2F70EC0BA0F621F731F841F48F4D1
:10064000879577956795B795F7959E3F08F0B3CF57
:100650009395880F08F09927EE0F97958795089541
:100660000CD0E6C0DED040F0D5D030F021F45F3FB2
:1006700019F0C7C0511110C1CAC0EBD098F399232B
:10068000C9F35523B1F3951B550BBB27AA27621756
:100690007307840738F09F5F5F4F220F331F441F9B
:1006A000AA1FA9F333D00E2E3AF0E0E830D09150D3
:1006B0005040E695001CCAF729D0FE2F27D0660FC0
:1006C000771F881FBB1F261737074807AB07B0E8FF
:1006D00009F0BB0B802DBF01FF2793585F4F2AF015
:1006E0009E3F510568F08DC0D7C05F3FECF3983E48
:1006F000DCF3869577956795B795F7959F5FC9F772
:10070000880F911D9695879597F90895E1E0660FFA
:10071000771F881FBB1F621773078407BA0720F073
:10072000621B730B840BBA0BEE1F88F7E0950895DC
:1007300098D088F09F5790F0B92F9927B751A0F023
:10074000D1F0660F771F881F991F1AF0BA95C9F765
:1007500012C0B13081F09FD0B1E008959CC0672FE6
:10076000782F8827B85F39F0B93FCCF38695779515
:100770006795B395D9F73EF49095809570956195FE
:100780007F4F8F4F9F4F0895E89409C097FB3EF429
:1007900090958095709561957F4F8F4F9F4F9923CE
:1007A000A9F0F92F96E9BB279395F695879577954C
:1007B0006795B795F111F8CFFAF4BB0F11F460FF0C
:1007C0001BC06F5F7F4F8F4F9F4F16C0882311F064
:1007D00096E911C0772321F09EE8872F762F05C078
:1007E000662371F096E8862F70E060E02AF09A9513
:1007F000660F771F881FDAF7880F9695879597F908
:10080000089597F99F6780E870E060E008959FEF92
:1008100080EC089500240A94161617061806090697
:10082000089500240A941216130614060506089566
:10083000092E0394000C11F4882352F0BB0F40F4EE
:10084000BF2B11F460FF04C06F5F7F4F8F4F9F4F2E
:10085000089557FD9058440F551F59F05F3F71F0B0
:100860004795880F97FB991F61F09F3F79F0879517
:100870000895121613061406551FF2CF4695F1DFA0
:1008800008C0161617061806991FF1CF8695710530
:10089000610508940895E894BB2766277727CB0164
:1008A00097F908950BD0C4CFB5DF28F0BADF18F060
:1008B000952309F0A6CFABCF1124EECFCADFA0F36A
:1008C000959FD1F3950F50E0551F629FF001729FE5
:1008D000BB27F00DB11D639FAA27F00DB11DAA1F04
:1008E000649F6627B00DA11D661F829F2227B00D51
:1008F000A11D621F739FB00DA11D621F839FA00DDC
:10090000611D221F749F3327A00D611D231F849F2B
:10091000600D211D822F762F6A2F11249F57504082
:100920008AF0E1F088234AF0EE0FFF1FBB1F661F1D
:10093000771F881F91505040A9F79E3F510570F0D6
:1009400060CFAACF5F3FECF3983EDCF386957795B6
:100950006795B795F795E7959F5FC1F7FE2B880FD1
:10096000911D9695879597F90895EE0FFF1F0590B5
:0A097000F491E02D0994F894FFCFF4
:00000001FF
