:100000003AC0000048C0000046C0000044C00000E4
:1000100042C0000040C000003EC000003CC00000E4
:100020003AC0000038C0000036C0000034C00000F4
:1000300032C0000068C200002EC000002CC00000CA
:100040002AC0000028C0000039C2000024C00000FF
:1000500022C0000020C000001EC000001CC0000024
:100060001AC0000018C000000A026301E5017C010B
:100070008B01F501100211241FBECFEFD8E0DEBFC7
:10008000CDBF21E0A0E0B1E001C01D92A931B207CF
:10009000E1F74AD257C4B4CFE3E1F1E0808183664F
:1000A0008F778083E4E1F1E080818E7F8D7F808394
:1000B000109206011092050110921801109217017A
:1000C000089588230CF4815E682F65956595659584
:1000D00065956595772767FD7095872F972F3DD399
:1000E0002FE632E143E05AE3C4D304D3CB010895B1
:1000F000CF92DF92EF92FF92CF93DF938091130123
:1001000080FF56C080E49CE9909302018093010136
:100110008CE9809387008091010180938600C091D3
:100120000101D09102018091050190910601C89FC3
:10013000B001C99F700DD89F700D112480E090E030
:100140000AD32AE037ED43EA5CE36CD2D8D26B01E4
:100150007C017093090160930801809117019091CF
:100160001801C89FB001C99F700DD89F700D112450
:1001700080E090E0F0D22AE037ED43EA5CE352D22F
:10018000BED270930401609303016C197D097695CA
:100190006795729562956F7067277F706727709378
:1001A000160160931501E3E1F1E080818E7F808389
:1001B0008091130181FF23C080E080930C0188BDF2
:1001C00080911301829586958770837090E08230CC
:1001D000910559F08330910559F0019719F082E0AB
:1001E00085BD08C083E085BD05C084E085BD02C033
:1001F00085E085BDE3E1F1E080818D7F80838091A2
:10020000140180FF1BC0809107018F715ADFBC0170
:10021000882777FD8095982FA0D29B01AC0166EAD4
:100220007BE984EC9AE399D165D2709306016093DF
:100230000501E4E1F1E080818E7F808380911401EB
:1002400081FF19C0809107018F713BDFBC018827B6
:1002500077FD8095982F81D226EA3BE944EC5AE35A
:100260007DD148D27093180160931701E4E1F1E069
:1002700080818D7F8083DF91CF91FF90EF90DF9021
:10028000CF9008952091150130911601482F429F7B
:10029000C001439F900D1124209108013091090164
:1002A000820F931F089580930701E0910701E29563
:1002B000E695E770F0E03197E730F10508F047C0C8
:1002C000EC5CFF4F39C3809107018F7021F484B536
:1002D000806384BDAAC08091070180E08093000103
:1002E00088BD8091070184FF02C0289A01C0289828
:1002F00084B5806384BD99C0809107018F71C2DF8E
:1003000080930A0190930B019093890080910A01D8
:10031000809388008AC0809107018F7131F4EDE0ED
:10032000F1E080818E7F80830CC0EDE0F1E0808180
:1003300081608083909107019F71990F817C892B47
:100340008083E3E1F1E08081806880836EC08091EA
:1003500007018F7081F48091070184FF06C0EEE0F1
:10036000F1E080818E7F80832AC0EEE0F1E0808121
:100370008D7F808324C08091070184FF0CC0909101
:1003800007019F70EEE0F1E0990F990F8081837C67
:10039000892B808314C080910701982F9F70EEE015
:1003A000F1E08295880F880F807C20812F73822B4B
:1003B00080839695969581818C7F892B8183E3E15B
:1003C000F1E080818068808330C090910701929530
:1003D0009170E0E1F1E0808190FB80F98083E3E1BE
:1003E000F1E080818068808320C020910701E3E1F3
:1003F000F1E0220F220F207690819F79922B90833B
:10040000809107018770880F880F937E892B826007
:1004100080830BC0E4E1F1E080818260808305C0CD
:10042000E4E1F1E080818160808380E00895809143
:100430001301882324F58091100180FF02C05C9A8B
:1004400001C05C9880910D0180FF0FC08695880FD8
:10045000880F880F109211018093120180938B00F6
:100460008091110180938A0005C010928B0083E077
:1004700080938A00E3E1F1E080818F7780830895A3
:1004800082E8809380008AE180938100109282004C
:1004900010926F0016BA8BE08093890088EB8093EE
:1004A000880010928B008AE080938A00089583EF81
:1004B00084BD8AE085BD10926E0008951F920F9250
:1004C0000FB60F9211242F933F934F935F936F9327
:1004D0007F938F939F93AF93BF93EF93FF938091FD
:1004E000C600E1DEFF91EF91BF91AF919F918F9197
:1004F0007F916F915F914F913F912F910F900FBE20
:100500000F901F9018951F920F920FB60F92112403
:100510000F900FBE0F901F90189515B88FE384B9F8
:100520001BB880E18AB90895F8DFAADFC0DFB4DD27
:1005300087E690E004D07894DBDD79DFFDCF9093FF
:10054000C5008093C40080E28093C00088E9809356
:10055000C10086E08093C20008955058BB27AA27A7
:100560000ED04DC13ED130F043D120F031F49F3F49
:1005700011F41EF433C10EF4E095E7FB29C1E92F15
:100580004FD180F3BA17620773078407950718F0F5
:1005900071F49EF567C10EF4E0950B2EBA2FA02DD5
:1005A0000B01B90190010C01CA01A0011124FF2720
:1005B000591B99F0593F50F4503E68F11A16F0401B
:1005C000A22F232F342F4427585FF3CF469537951A
:1005D0002795A795F0405395C9F77EF41F16BA0BDF
:1005E000620B730B840BBAF09150A1F0FF0FBB1F8D
:1005F000661F771F881FC2F70EC0BA0F621F731FD6
:10060000841F48F4879577956795B795F7959E3F32
:1006100008F0B3CF9395880F08F09927EE0F9795C0
:10062000879508950CD0EBC0E3D040F0DAD030F0DD
:1006300021F45F3F19F0CCC0511115C1CFC0F0D0EB
:1006400098F39923C9F35523B1F3951B550BBB2799
:10065000AA2762177307840738F09F5F5F4F220F46
:10066000331F441FAA1FA9F333D00E2E3AF0E0E83F
:1006700030D091505040E695001CCAF729D0FE2F8B
:1006800027D0660F771F881FBB1F2617370748071D
:10069000AB07B0E809F0BB0B802DBF01FF279358D3
:1006A0005F4F2AF09E3F510568F092C0DCC05F3F6B
:1006B000ECF3983EDCF3869577956795B795F795BB
:1006C0009F5FC9F7880F911D9695879597F90895B3
:1006D000E1E0660F771F881FBB1F6217730784074F
:1006E000BA0720F0621B730B840BBA0BEE1F88F75E
:1006F000E095089504D06894B111B5C0089598D0DC
:1007000088F09F5790F0B92F9927B751A0F0D1F0FA
:10071000660F771F881F991F1AF0BA95C9F712C084
:10072000B13081F09FD0B1E008959CC0672F782F41
:100730008827B85F39F0B93FCCF3869577956795F0
:10074000B395D9F73EF490958095709561957F4F5C
:100750008F4F9F4F0895E89409C097FB3EF4909502
:100760008095709561957F4F8F4F9F4F9923A9F08A
:10077000F92F96E9BB279395F69587957795679519
:10078000B795F111F8CFFAF4BB0F11F460FF1BC05D
:100790006F5F7F4F8F4F9F4F16C0882311F096E9F0
:1007A00011C0772321F09EE8872F762F05C066239E
:1007B00071F096E8862F70E060E02AF09A95660F57
:1007C000771F881FDAF7880F9695879597F9089510
:1007D00097F99F6780E870E060E008959FEF80ECF4
:1007E000089500240A941616170618060906089597
:1007F00000240A9412161306140605060895092EFD
:100800000394000C11F4882352F0BB0F40F4BF2B6B
:1008100011F460FF04C06F5F7F4F8F4F9F4F0895AB
:1008200057FD9058440F551F59F05F3F71F04795A1
:10083000880F97FB991F61F09F3F79F08795089586
:10084000121613061406551FF2CF4695F1DF08C0A5
:10085000161617061806991FF1CF869571056105C2
:1008600008940895E894BB2766277727CB0197F96A
:1008700008950BD0C4CFB5DF28F0BADF18F0952368
:1008800009F0A6CFABCF1124EECFCADFA0F3959F1E
:10089000D1F3950F50E0551F629FF001729FBB2767
:1008A000F00DB11D639FAA27F00DB11DAA1F649F13
:1008B0006627B00DA11D661F829F2227B00DA11DC6
:1008C000621F739FB00DA11D621F839FA00D611D4C
:1008D000221F749F3327A00D611D231F849F600D6D
:1008E000211D822F762F6A2F11249F5750408AF0A6
:1008F000E1F088234AF0EE0FFF1FBB1F661F771F32
:10090000881F91505040A9F79E3F510570F060CF6D
:10091000AACF5F3FECF3983EDCF386957795679519
:10092000B795F795E7959F5FC1F7FE2B880F911D4F
:100930009695879597F90895EE0FFF1F0590F4910E
:08094000E02D0994F894FFCFAB
:00000001FF
