S00A000052782E7372656350
S11300003AC0000048C0000046C0000044C00000E0
S113001042C0000040C000003EC000003CC00000E0
S11300203AC0000038C0000036C0000034C00000F0
S113003032C0000076C200002EC000002CC00000B8
S11300402AC0000028C0000047C2000024C00000ED
S113005022C0000020C000001EC000001CC0000020
S11300601AC0000018C0000018027101F3018A01CF
S1130070990103021E0211241FBECFEFD8E0DEBF98
S1130080CDBF21E0A0E0B1E001C01D92AF31B207C5
S1130090E1F758D28DC4B4CFE5E1F1E08081836605
S11300A08F778083E6E1F1E080818E7F8D7F80838E
S11300B01092050110920601109207011092080196
S11300C010921B0110921C0110921D0110921E012E
S11300D0089588230CF4815E682F65956595659570
S11300E065956595772767FD7095872F972F43D37F
S11300F02FE632E143E05AE3CAD30AC308958F924C
S11301009F92AF92BF92CF92DF92EF92FF92809133
S1130110150180FF5BC080E49CE990930201809309
S113012001018CE98093870080910101809386000E
S11301308090010190900201A12CB12C60910501E5
S1130140709106018091070190910801A501940125
S113015001D411D32AE037ED43EA5CE371D2DDD256
S11301606B017C0170930B0160930A0160911B0188
S113017070911C0180911D0190911E01A5019401B3
S1130180E9D3F9D22AE037ED43EA5CE359D2C5D288
S113019070930401609303016C197D09769567954A
S11301A0729562956F7067277F706727CB01A0E017
S11301B0B0E08093170190931801A0931901B093B4
S11301C01A01E5E1F1E080818E7F80838091150141
S11301D081FF23C080E080930E0188BD80911501CA
S11301E0829586958770837090E08230910559F0EE
S11301F08330910559F0019719F082E085BD08C05C
S113020083E085BD05C084E085BD02C085E085BD71
S1130210E5E1F1E080818D7F80838091160180FF8C
S11302201AC0809109018F7154DFA5D29B01AC01E2
S113023066EA7BE984EC9AE39ED16AD26093050175
S1130240709306018093070190930801E6E1F1E0C1
S113025080818E7F80838091160181FF18C08091F8
S113026009018F7136DF87D226EA3BE944EC5AE371
S113027083D14ED260931B0170931C0180931D01A6
S113028090931E01E6E1F1E080818D7F8083FF90F1
S1130290EF90DF90CF90BF90AF909F908F90089594
S11302A02091170130911801482F429FC001439FAC
S11302B0900D112420910A0130910B01820F931F9C
S11302C0089580930901E0910901E295E695E770AC
S11302D0F0E03197E730F10508F047C0EC5CFF4FE0
S11302E048C3809109018F7021F484B5806384BD73
S11302F0AAC08091090180E08093000188BD8091AB
S1130300090184FF02C0289A01C0289884B580633B
S113031084BD99C0809109018F71C2DF80930C0163
S113032090930D019093890080910C018093880033
S11303308AC0809109018F7131F4EFE0F1E080818E
S11303408E7F80830CC0EFE0F1E080818160808348
S1130350909109019F71990F817C892B8083E5E13C
S1130360F1E08081806880836EC0809109018F7084
S113037081F48091090184FF06C0E0E1F1E080810D
S11303808E7F80832AC0E0E1F1E080818D7F8083CD
S113039024C08091090184FF0CC0909109019F70D1
S11303A0E0E1F1E0990F990F8081837C892B8083B0
S11303B014C080910901982F9F70E0E1F1E08295CB
S11303C0880F880F807C20812F73822B80839695E1
S11303D0969581818C7F892B8183E5E1F1E0808191
S11303E08068808330C09091090192959170E2E118
S11303F0F1E0808190FB80F98083E5E1F1E0808188
S11304008068808320C020910901E5E1F1E0220F9A
S1130410220F207690819F79922B908380910901FD
S11304208770880F880F937E892B826080830BC02E
S1130430E6E1F1E080818260808305C0E6E1F1E0DD
S113044080818160808380E00895809115018823F4
S113045024F58091120180FF02C05C9A01C05C986F
S113046080910F0180FF0FC08695880F880F880F39
S1130470109213018093140180938B0080911301D7
S113048080938A0005C010928B0083E080938A00D9
S1130490E5E1F1E080818F778083089582E880939D
S11304A080008AE1809381001092820010926F0094
S11304B016BA8BE08093890088EB809388001092B1
S11304C08B008AE080938A00089583EF84BD8AE0DC
S11304D085BD10926E0008951F920F920FB60F9271
S11304E011242F933F934F935F936F937F938F9335
S11304F09F93AF93BF93EF93FF938091C600E1DE88
S1130500FF91EF91BF91AF919F918F917F916F91E7
S11305105F914F913F912F910F900FBE0F901F90BD
S113052018951F920F920FB60F9211240F900FBEC1
S11305300F901F90189515B88FE384B91BB880E10C
S11305408AB90895F8DFAADFC0DFA6DD87E690E068
S113055004D07894D4DD79DFFDCF9093C5008093E7
S1130560C40080E28093C00088E98093C10086E0E3
S11305708093C20008955058BB27AA270ED04DC1BE
S11305803ED130F043D120F031F49F3F11F41EF4FA
S113059033C10EF4E095E7FB29C1E92F4FD180F375
S11305A0BA17620773078407950718F071F49EF56C
S11305B067C10EF4E0950B2EBA2FA02D0B01B901E3
S11305C090010C01CA01A0011124FF27591B99F0C5
S11305D0593F50F4503E68F11A16F040A22F232FD1
S11305E0342F4427585FF3CF469537952795A79521
S11305F0F0405395C9F77EF41F16BA0B620B730BC8
S1130600840BBAF09150A1F0FF0FBB1F661F771F38
S1130610881FC2F70EC0BA0F621F731F841F48F4ED
S1130620879577956795B795F7959E3F08F0B3CF73
S11306309395880F08F09927EE0F9795879508955D
S11306400CD0EBC0E3D040F0DAD030F021F45F3FBF
S113065019F0CCC0511115C1CFC0F0D098F3992333
S1130660C9F35523B1F3951B550BBB27AA27621772
S11306707307840738F09F5F5F4F220F331F441FB7
S1130680AA1FA9F333D00E2E3AF0E0E830D09150EF
S11306905040E695001CCAF729D0FE2F27D0660FDC
S11306A0771F881FBB1F261737074807AB07B0E81B
S11306B009F0BB0B802DBF01FF2793585F4F2AF031
S11306C09E3F510568F092C0DCC05F3FECF3983E5A
S11306D0DCF3869577956795B795F7959F5FC9F78E
S11306E0880F911D9695879597F90895E1E0660F17
S11306F0771F881FBB1F621773078407BA0720F090
S1130700621B730B840BBA0BEE1F88F7E0950895F8
S113071004D06894B111B5C0089598D088F09F575B
S113072090F0B92F9927B751A0F0D1F0660F771F39
S1130730881F991F1AF0BA95C9F712C0B13081F019
S11307409FD0B1E008959CC0672F782F8827B85FA9
S113075039F0B93FCCF3869577956795B395D9F77A
S11307603EF490958095709561957F4F8F4F9F4F84
S11307700895E89409C097FB3EF490958095709590
S113078061957F4F8F4F9F4F9923A9F0F92F96E9D9
S1130790BB279395F695879577956795B795F1114E
S11307A0F8CFFAF4BB0F11F460FF1BC06F5F7F4FEB
S11307B08F4F9F4F16C0882311F096E911C07723FD
S11307C021F09EE8872F762F05C0662371F096E806
S11307D0862F70E060E02AF09A95660F771F881FD5
S11307E0DAF7880F9695879597F9089597F99F6793
S11307F080E870E060E008959FEF80EC08950024A5
S11308000A941616170618060906089500240A9471
S113081012161306140605060895092E0394000CF7
S113082011F4882352F0BB0F40F4BF2B11F460FF86
S113083004C06F5F7F4F8F4F9F4F089557FD9058AF
S1130840440F551F59F05F3F71F04795880F97FB90
S1130850991F61F09F3F79F087950895121613064A
S11308601406551FF2CF4695F1DF08C01616170679
S11308701806991FF1CF86957105610508940895AE
S1130880E894BB2766277727CB0197F908950BD007
S1130890C4CFB5DF28F0BADF18F0952309F0A6CF4E
S11308A0ABCF1124EECFCADFA0F3959FD1F3950F00
S11308B050E0551F629FF001729FBB27F00DB11DE0
S11308C0639FAA27F00DB11DAA1F649F6627B00D70
S11308D0A11D661F829F2227B00DA11D621F739F59
S11308E0B00DA11D621F839FA00D611D221F749F67
S11308F03327A00D611D231F849F600D211D822FAE
S1130900762F6A2F11249F5750408AF0E1F08823F4
S11309104AF0EE0FFF1FBB1F661F771F881F915001
S11309205040A9F79E3F510570F060CFAACF5F3FBA
S1130930ECF3983EDCF3869577956795B795F79534
S1130940E7959F5FC1F7FE2B880F911D96958795BC
S113095097F90895DB018F939F9311D0BF91AF91C5
S1130960A29F800D911DA39F900DB29F900D112405
S11309700895EE0FFF1F0590F491E02D099409D01E
S1130980A59F900DB49F900DA49F800D911D1124DF
S11309900895A29FB001B39FC001A39F700D811D54
S11309A01124911DB29F700D811D1124911D089574
S10709B0F894FFCFE5
S9030000FC
