:100000000C9434000C9446000C9446000C9446006A
:100010000C9446000C9446000C9446000C94460048
:100020000C9446000C9446000C9446000C94460038
:100030000C9446000C9446000C9446000C94460028
:100040000C9480000C9446000C9446000C944600DE
:100050000C9446000C948A000C9446000C944600C4
:100060000C9446000C94460011241FBECFEFD8E03C
:10007000DEBFCDBF21E0A0E0B1E001C01D92AA30FB
:10008000B207E1F70E9494000C94A6000C940000C3
:100090000895883019F41092000101C08F5FE82F95
:1000A000F0E0EF5FFE4F8081089580EE80937C004A
:1000B0008FE480937A0080E180937E00089581E44C
:1000C0008093B0008FE08093B10083E08093700054
:1000D00087BB80E68093B600089588E085B98CE000
:1000E00084B908959093C5008093C40080E2809302
:1000F000C00088E58093C10086E08093C200089527
:100100001F920F920FB60F9211240F900FBE0F90F7
:100110001F9018951F920F920FB60F9211240F90F7
:100120000FBE0F901F9018950E946D000E945F00F7
:100130000E94550087E690E00E94720078948091BA
:1001400009010E9449000E944800F9CFF894FFCFAE
:00000001FF
