:100000000C9434000C9446000C9446000C9446006A
:100010000C9446000C9446000C9446000C94460048
:100020000C9446000C9446000C9446000C94460038
:100030000C9446000C9446000C9446000C94460028
:100040000C9446000C9446000C9446000C94460018
:100050000C9446000C9446000C9446000C94460008
:100060000C9446000C94460011241FBECFEFD8E03C
:10007000DEBFCDBF21E0A0E0B1E001C01D92A03005
:10008000B207E1F70E9473000C947F000C9400000B
:1000900080EE80937C008FE480937A0080E18093EF
:1000A0007E00089581E48093B0008FE08093B100DA
:1000B00083E08093700087BB80E68093B60008954C
:1000C00088E085B98CE084B908959093C500809349
:1000D000C40080E28093C00088E58093C10086E080
:1000E0008093C20008950E9460000E9452000E9406
:1000F000480087E690E00E9465007894FFCFF8946E
:02010000FFCF2F
:00000001FF
