S00A000054782E737265634E
S11300000C9434000C9446000C9446000C94460066
S11300100C9446000C9446000C9446000C94460044
S11300200C9446000C9446000C9446000C94460034
S11300300C9446000C9446000C9446000C94460024
S11300400C9480000C9446000C9446000C944600DA
S11300500C9446000C948A000C9446000C944600C0
S11300600C9446000C94460011241FBECFEFD8E038
S1130070DEBFCDBF21E0A0E0B1E001C01D92AC30F5
S1130080B207E1F70E9494000C94B4000C940000B1
S11300908091000186958F71833041F48091000135
S11300A080FF04C0E0E0F1E0817C80830895883023
S11300B019F41092020105C0E82FF0E0ED5FFE4F45
S11300C09081892F089580EE80937C008FE4809343
S11300D07A0080E180937E00089581E48093B000EB
S11300E08FE08093B10083E08093700087BB80E64B
S11300F08093B600089588E085B98CE084B90895AA
S11301001F920F920FB60F9211240F900FBE0F90F3
S11301101F9018951F920F920FB60F9211240F90F3
S11301200FBE0F901F9018950E947B000E946D00D7
S11301300E94630087E690E00E94A6007894809174
S11301400B010E9457000E944800F9CF9093C5000C
S11301508093C40080E28093C00088E58093C1004E
S10F016086E08093C2000895F894FFCF5D
S9030000FC
