S00A000054782E737265634E
S11300000C9434000C9446000C9446000C94460066
S11300100C9446000C9446000C9446000C94460044
S11300200C9446000C9446000C9446000C94460034
S11300300C9446000C9446000C9446000C94460024
S11300400C9490000C9446000C9446000C944600CA
S11300500C9446000C949A000C9446000C944600B0
S11300600C9446000C94460011241FBECFEFD8E038
S1130070DEBFCDBF21E0A0E0B1E001C01D92AB30F6
S1130080B207E1F70E94A4000C94B6000C9400009F
S1130090883019F41092010101C08F5FE82FF0E05D
S11300A0EE5FFE4F80810895883019F410920001AC
S11300B00895E82FF0E0EE5FFE4F6083089565E059
S11300C0809100010E945400089580EE80937C008A
S11300D08FE480937A0080E180937E00089581E428
S11300E08093B0008FE08093B10083E08093700030
S11300F087BB80E68093B600089588E085B98CE0DC
S113010084B908959093C5008093C40080E28093DD
S1130110C00088E58093C10086E08093C200089502
S11301201F920F920FB60F9211240F900FBE0F90D3
S11301301F9018951F920F920FB60F9211240F90D3
S11301400FBE0F901F9018950E947D000E946F00B3
S11301500E94650087E690E00E9482007894809176
S11301600A010E9448000E945F00F9CFF894FFCF73
S9030000FC
